:100000000C9463000C944C060C9479060C948B00B1
:100010000C948B000C948B000C948B000C948B0034
:100020000C948B000C948B000C948B000C948B0024
:100030000C948B000C948B000C948B000C948B0014
:100040000C94A6060C948B000C94F1090C94230AD2
:100050000C948B000C948B000C948B000C948B00F4
:100060000C948B000C948B0000000008000201002F
:100070000003040700000000000000000102040863
:100080001020408001020408102001020408102002
:10009000040404040404040402020202020203032E
:1000A00003030303000000002300260029000000D2
:1000B0000000250028002B0000000000240027007D
:1000C0002A000F01530A11241FBECFEFD8E0DEBF74
:1000D000CDBF11E0A0E0B1E0E2E8F5E102C005909B
:1000E0000D92A033B107D9F722E0A0E3B1E001C03F
:1000F0001D92AE32B207E1F710E0C6ECD0E004C0CA
:100100002297FE010E94BB0AC23CD107C9F70E9498
:10011000A3080C94BF0A0C94000026E040E056E9C6
:1001200060E070E081E991E00E9495096AE070E08A
:1001300080E090E00E941F0722E345E06BE280E34D
:1001400091E00E94520460E071E080E391E00E943F
:10015000190461E080E391E00C94C501CF9380E342
:1001600091E00E94AD03882309F457C061E171E07A
:1001700081E991E00E94C007609143014AE050E0AC
:1001800081E991E00E94950863E171E081E991E0E5
:100190000E94C007C0E080914401C817A0F4EC2F72
:1001A000F0E0EA5BFE4F608170E04AE050E081E9F8
:1001B00091E00E949C0863E171E081E991E00E9476
:1001C000C007CF5FE8CF65E171E081E991E00E946F
:1001D000C00760E080E391E00E94A8014AE050E09F
:1001E000BC0181E991E00E94800867E171E081E94A
:1001F00091E00E94C00781E991E00E94C90780E375
:1002000091E00E943A01882341F040E064E171E00E
:1002100080E391E0CF910C94C503CF9108958DE1D7
:1002200091E090933101809330018AE08093320114
:1002300082E0809333011092340181E08093450184
:10024000109236018FE180933701109238010895A2
:1002500080913B0190913C01DC01ED91FC9101907A
:10026000F081E02D09948EBD00000DB407FEFDCF96
:100270008EB5089580914001882329F09091420124
:1002800081E09F3F09F480E00895FC01F8948CB56B
:1002900081878DB582878CB5837F8CBD8CB58F7D32
:1002A0008CBD8CB58C7F8CBD8DB58E7F8DBD60E097
:1002B00082810C94CD05CF93DF93EC0161E08A81BC
:1002C0000E94CD0589858CBD8A858DBD7894DF918E
:1002D000CF910895EF92FF921F93CF93DF931F92D8
:1002E000CDB7DEB77C0169830E9445016981862F05
:1002F0008F770E94330180E00E943301182FC701DD
:100300000E945B01812F0F90DF91CF911F91FF9091
:10031000EF9008950F931F93CF93DF9300D0CDB745
:10032000DEB78C014A8369830E9445016981862F6B
:1003300080680E9433014A81842F0E943301C801E2
:100340000F900F90DF91CF911F910F910C945B0153
:10035000CF93DF93EC0161110DC064E2CE010E94E6
:100360006A0190E091958195910995958795DF9126
:10037000CF91089541E063E20E948A0163E2CE01D9
:100380000E946A0181FFFACFE8CFFC0166830895DD
:10039000CF93DF93EC016887662311F04FE001C033
:1003A0004AE163E1CE010E948A018885882341F0F9
:1003B00061E1CE010E946A01482F4F71406602C080
:1003C0004F81406861E1CE01DF91CF910C948A01A9
:1003D0001F93CF93DF93EC01162F662311F04DE5A9
:1003E00001C045E56AE5CE010E948A01112311F0A2
:1003F0004CE701C040E76CE5CE01DF91CF911F9142
:100400000C948A011F93CF93DF93EC01162F8091F8
:100410004501681709F456C06230B1F168F46623EB
:10042000D9F1613009F04EC061E0CE010E946A014D
:10043000482F437E446036C0633099F0643009F041
:1004400041C061E0CE010E946A01482F437E4C60AA
:1004500061E0CE010E948A018885882339F161E03C
:100460000FC061E0CE010E946A01482F437E4061C7
:1004700061E0CE010E948A0188858823B9F060E09E
:10048000CE010E94E80112C061E0CE010E946A0123
:10049000482F437E486006C061E0CE010E946A0199
:1004A000482F437E61E0CE010E948A018091450180
:1004B000811106C067E2CE010E946A0187FFF6CF74
:1004C00010934501DF91CF911F910895CF93DF9352
:1004D000EC0180914501833089F4809141018111C3
:1004E0000DC060E0CE010E94A801863A9F4F34F40F
:1004F00061E0CE010E94020281E001C080E0DF9154
:10050000CF910895CF92DF92EF92FF920F931F93B6
:10051000CF93DF93EC01F62ED42EC52E122F61E07F
:100520000E94020267E2CE010E946A0187FFFACFB1
:1005300040E065E2CE010E948A011E3308F01DE30F
:10054000E11004C0002319F000E401C000E8CE016E
:100550000E94450180E80E94330183E0810F0E94E0
:1005600033018F2D0E9433018D810E943301802F32
:100570000E9433010D2DED2CFC2C8E2D801B81173C
:1005800030F4F70181917F010E943301F6CFCE0153
:100590000E945B0164E0CE010E9402020E94F0060C
:1005A0006B017C018B810E940306892B61F061E065
:1005B000CE01DF91CF911F910F91FF90EF90DF90CF
:1005C000CF900C9402020E94F0066C197D098E09EE
:1005D0009F09683E73408105910548F7E3CFCF93AB
:1005E000DF93EC01109244011092430110924201FA
:1005F000109241011092400110923F0110923E0171
:1006000010923D0168E20E946A0182FF0AC06DE318
:10061000CE010E946A01482F44606DE3CE010E9422
:100620008A0140E465E2CE010E948A0163E0CE01C6
:10063000DF91CF910C940202FF920F931F93CF93FF
:10064000DF93EC01809145018330C1F468E2CE0173
:100650000E946A0182FD20C011C0809144018D3347
:1006600030F4E0914401F0E0EA5BFE4F1082CE01ED
:100670000E945B0163E0CE010E94020260E0CE01B5
:100680000E94A80190933E0180933D01DF91CF919C
:100690001F910F91FF90089561E0CE010E94020228
:1006A000CE010E94450180E00E94330180E00E945B
:1006B000330180934101809141018334D0F48091D2
:1006C00041018093410180E00E9433018093420107
:1006D0008E81811109C0909142018D81981721F07E
:1006E000809142018F3F39F480914101833018F0AD
:1006F0000FC082E4E6CF10924101CE010E945B015F
:10070000CE01DF91CF911F910F91FF900C94EF02DA
:100710008091410183508093440180E00E94330125
:100720008093430180E00E943301982F907890934A
:100730003F01807480934001F12C80914401F816B0
:1007400008F08BCF0F2D10E080E00E943301F801FC
:10075000EA5BFE4F8083F394F0CFF894209145013B
:10076000233021F42091410121110AC0209145013B
:10077000233011F4789402C00E94EF0280E00895C3
:1007800061E00E94020281E008954F925F926F92B1
:100790007F929F92AF92BF92CF92DF92EF92FF92A1
:1007A0000F93CF93DF93EC015B01942EF090430104
:1007B000C0903D01D0903E016DE30E946A01482F38
:1007C00044606DE3CE010E948A010E94F0062B0175
:1007D0003C01CE010E9466028823E1F0EE24E394FE
:1007E00000E0292DA5016F2DCE010E948202D0923A
:1007F0003E01C0923D01DF91CF910F91FF90EF90AC
:10080000DF90CF90BF90AF909F907F906F905F9060
:100810004F9008950E94F00664197509860997099A
:10082000683E734081059105C8F6CE010E94AD0374
:10083000D0CFDF92EF92FF920F931F93CF93DF936E
:10084000EC018B0161E00E94020201151105A1F08B
:10085000CE010E9445018EEB0E9433017801D12C1C
:10086000F70181917F010E943301D394F0E1DF12FF
:10087000F7CFCE010E945B016DE3CE010E946A01B9
:100880008E7F91E0012B09F490E0482F492B6DE316
:10089000CE01DF91CF911F910F91FF90EF90DF90EC
:1008A0000C948A01CF92DF92EF92FF920F931F93E5
:1008B000CF93DF93CDB7DEB7AE970FB6F894DEBF18
:1008C0000FBECDBF8C01C42E8EE2AE014F5F5F4FD5
:1008D0007A01FA01482F11924A95E9F791E099833C
:1008E00044E04A8392E09B8333E03D8396E09E831D
:1008F0004F8343E8488745E049873A879B8793E3DE
:100900009C8737E03D8798E09F8799E0998B99E134
:100910009B8B92E49C8B45E24D8B40E44E8B46E2F0
:100920004F8B388F38E2398F30E13A8F39E23B8F85
:100930003CED3C8F8D8F88E88E8F8FE28F8F8DE21C
:1009400088A380E389A337E33BA330E93CA338E3E2
:100950003DA39EA39CE39FA39FE898A79DE399A72F
:1009600092E19AA79FE69BA78CA78FEF8DA76F3187
:1009700031F06B3231F0663531F489ED05C08EE42B
:1009800003C08CE601C084EE8E876F3141F06B327C
:1009900021F0663521F480E003C080E401C080ECE2
:1009A000888B2AA361E0F80182810E94CD0561E075
:1009B000F80182810E9494050E9435054AEA6FE29F
:1009C000C8010E948A016FE2C8010E946A018A3A46
:1009D000A9F745E56FE2C8010E948A016FE2C801EC
:1009E0000E946A018535A9F7D12CF701ED0DF11DA3
:1009F000ED0DF11D60816F3F31F04181C8010E9412
:100A00008A01D394F2CF60E070E0C8010E9419041B
:100A1000F8016085C8010E94C80161E0C8010E9418
:100A2000020267E2C8010E946A0187FFFACF43E031
:100A300050E068E271E0F80184810E942C06109376
:100A40003C0100933B01F801C58281E0AE960FB6F0
:100A5000F894DEBF0FBECDBFDF91CF911F910F91F4
:100A6000FF90EF90DF90CF900895CF93CFB7F89499
:100A700080918301811127C0EAE9F0E08491E6E8E2
:100A8000F0E09491E82FF0E0EE0FFF1FE854FF4FE5
:100A9000A591B4918C91892321F461E08AE00E94B0
:100AA000CD0561E08AE00E9494058CB580618CBD23
:100AB0008CB580648CBD61E08DE00E94940561E09E
:100AC0008BE00E949405809183018F5F8093830166
:100AD000CFBFCF910895833081F028F4813099F011
:100AE0008230A1F008958730A9F08830B9F08430C1
:100AF000D1F4809180008F7D03C0809180008F773A
:100B000080938000089584B58F7702C084B58F7D6F
:100B100084BD08958091B0008F7703C08091B000AC
:100B20008F7D8093B0000895CF93DF9390E0FC0118
:100B3000E458FF4F2491FC01E057FF4F8491882334
:100B400049F190E0880F991FFC01E854FF4FA591EF
:100B5000B49182559F4FFC01C591D4919FB761110B
:100B600008C0F8948C91209582238C9388818223ED
:100B70000AC0623051F4F8948C91322F309583235F
:100B80008C938881822B888304C0F8948C91822B6B
:100B90008C939FBFDF91CF9108950F931F93CF93B5
:100BA000DF931F92CDB7DEB7282F30E0F901E85967
:100BB000FF4F8491F901E458FF4F1491F901E05778
:100BC000FF4F04910023C9F0882321F069830E941C
:100BD0006B056981E02FF0E0EE0FFF1FE255FF4F3C
:100BE000A591B4919FB7F8948C91611103C01095B1
:100BF000812301C0812B8C939FBF0F90DF91CF91F8
:100C00001F910F910895CF93DF93282F30E0F901C2
:100C1000E859FF4F8491F901E458FF4FD491F9014D
:100C2000E057FF4FC491CC2391F081110E946B05D6
:100C3000EC2FF0E0EE0FFF1FEC55FF4FA591B491A4
:100C40002C912D2381E090E021F480E002C080E02F
:100C500090E0DF91CF9108958230E8F4E82FF0E042
:100C6000EE0FFF1FEC57FE4F71836083813041F020
:100C7000809169008C7F842B80936900E89A0895A5
:100C800080916900440F551F440F551F837F842BAB
:100C900080936900E99A08951F920F920FB60F9200
:100CA00011242F933F934F935F936F937F938F9371
:100CB0009F93AF93BF93EF93FF93809184019091A3
:100CC0008501892B29F0E0918401F0918501099536
:100CD000FF91EF91BF91AF919F918F917F916F9114
:100CE0005F914F913F912F910F900FBE0F901F90EA
:100CF00018951F920F920FB60F9211242F933F93C6
:100D00004F935F936F937F938F939F93AF93BF9313
:100D1000EF93FF938091860190918701892B29F0B1
:100D2000E0918601F09187010995FF91EF91BF91C4
:100D3000AF919F918F917F916F915F914F913F9173
:100D40002F910F900FBE0F901F9018951F920F922A
:100D50000FB60F9211242F933F938F939F93AF93CE
:100D6000BF938091890190918A01A0918B01B091EC
:100D70008C013091880126E0230F2D3720F4029654
:100D8000A11DB11D05C029E8230F0396A11DB11DAA
:100D9000209388018093890190938A01A0938B010D
:100DA000B0938C0180918D0190918E01A0918F0163
:100DB000B09190010196A11DB11D80938D0190937A
:100DC0008E01A0938F01B0939001BF91AF919F913D
:100DD0008F913F912F910F900FBE0F901F901895FC
:100DE0002FB7F8946091890170918A0180918B01ED
:100DF00090918C012FBF08953FB7F89480918D0199
:100E000090918E01A0918F01B091900126B5A89B81
:100E100005C02F3F19F00196A11DB11D3FBF6627E8
:100E2000782F892F9A2F620F711D811D911D43E02C
:100E3000660F771F881F991F4A95D1F70895CF92A3
:100E4000DF92EF92FF92CF93DF936B017C010E94C0
:100E5000FC06EB01C114D104E104F10489F00E9405
:100E6000960A0E94FC066C1B7D0B683E734090F353
:100E700081E0C81AD108E108F108C851DC4FEACF77
:100E8000DF91CF91FF90EF90DF90CF90089578940D
:100E900084B5826084BD84B5816084BD85B582607F
:100EA00085BD85B5816085BDEEE6F0E0808181601D
:100EB0008083E1E8F0E0108280818260808380811D
:100EC00081608083E0E8F0E0808181608083E1EBF5
:100ED000F0E0808184608083E0EBF0E080818160DD
:100EE0008083EAE7F0E08081846080838081826093
:100EF000808380818160808380818068808310927C
:100F0000C1000895CF92DF92EF92FF920F931F934B
:100F1000CF93DF936C017A01EB01E60EF71E00E040
:100F200010E0CE15DF0561F06991D601ED91FC91DD
:100F30000190F081E02DC6010995080F191FF1CF2E
:100F4000C801DF91CF911F910F91FF90EF90DF903B
:100F5000CF9008956115710581F0DB010D9000209F
:100F6000E9F7AD0141505109461B570BDC01ED91EA
:100F7000FC910280F381E02D099480E090E00895D7
:100F80000C94AA07DC01ED91FC910190F081E02D19
:100F900009940F931F93CF93DF93EC016DE00E94B0
:100FA000C2078C016AE0CE010E94C207800F911F28
:100FB000DF91CF911F910F9108958F929F92AF92E1
:100FC000BF92CF92DF92EF92FF920F931F93CF9336
:100FD000DF93CDB7DEB7A1970FB6F894DEBF0FBE93
:100FE000CDBF7C01C42EE52FCB01D22E19A221E06A
:100FF0002D1510F02AE0D22E8E010F5D1F4F8D2C83
:10100000912CA12CB12C6C2D7E2FA50194010E9456
:10101000970A8C2DD29E80191124015011098A3013
:1010200014F4805D01C0895CF801808321153105CD
:101030004105510521F0C22EE32FCA01E4CFB801CA
:10104000C7010E94AA07A1960FB6F894DEBF0FBE93
:10105000CDBFDF91CF911F910F91FF90EF90DF9067
:10106000CF90BF90AF909F908F900895CF92DF92D6
:10107000EF92FF920F931F93CF93DF93EC016A01DE
:101080007B012115310579F4E881F9810190F08126
:10109000E02D642FDF91CF911F910F91FF90EF9082
:1010A000DF90CF9009942A303105E9F477FF1AC018
:1010B0006DE20E94C2078C0144275527BA014C19E2
:1010C0005D096E097F092AE0CE010E94DD07800FCD
:1010D000911FDF91CF911F910F91FF90EF90DF90C3
:1010E000CF9008952AE0B701A601CE01DF91CF91FC
:1010F0001F910F91FF90EF90DF90CF900C94DD0740
:101100009A01AB01662757FD6095762F0C9436083F
:101110002115310541F4DC01ED91FC910190F08144
:10112000E02D642F09940C94DD079A01462F50E0BE
:1011300060E070E00C9488089A01AB0160E070E018
:101140000C94880808950E9447070E94A2080E94F4
:101150008D00CFEDD8E00E94AE002097E1F30E9411
:10116000DF08F9CFFC01818D228D90E0805C9F4FDC
:10117000821B91098F7399270895FC01918D828DAF
:10118000981731F0828DE80FF11D858D90E008955C
:101190008FEF9FEF0895FC01918D828D981761F07C
:1011A000828DDF01A80FB11D5D968C91928D9F5F9E
:1011B0009F73928F90E008958FEF9FEF089589E4D9
:1011C0009AE0892B49F080E090E0892B29F00E9479
:1011D000490A81110C9400000895FC01848DDF01FF
:1011E000A80FB11DA35ABF4F2C91848D90E001969A
:1011F0008F739927848FA689B7892C93A089B18989
:101200008C9180648C93938D848D981306C0028892
:10121000F389E02D80818F7D80830895CF93DF93C4
:10122000EC01888D8823C9F0EA89FB89808185FDDE
:1012300005C0A889B9898C9186FD0FC00FB607FC3F
:10124000F5CF808185FFF2CFA889B9898C9185FF80
:10125000EDCFCE010E94ED08E7CFDF91CF91089549
:10126000CF92DF92FF920F931F93CF93DF931F9242
:10127000CDB7DEB76C01DC015B969C915B975C9609
:101280008C915C97981307C05096ED91FC91519703
:10129000808185FD32C0F601038D10E00F5F1F4F86
:1012A0000F731127F02EF601848DF81211C00FB6BE
:1012B00007FCF9CFD6015096ED91FC9151978081B2
:1012C00085FFF1CFC60169830E94ED086981EBCFEC
:1012D000838DE80FF11DE35AFF4F6083D6015B96C3
:1012E0000C935B975296ED91FC91539780818062AD
:1012F000808381E058968C930DC0D6015696ED916F
:10130000FC91579760835096ED91FC9151978081A5
:101310008064808381E090E00F90DF91CF911F91F6
:101320000F91FF90DF90CF900895BF92CF92DF9200
:10133000EF92FF92CF93DF93EC016A017B01B22E13
:1013400060E874E88EE190E0A70196010E94970A98
:1013500021503109410951095695479537952795EF
:10136000E889F98982E08083211580E1380798F0C7
:10137000E889F989108260E472E48FE090E0A701C7
:1013800096010E94970A2150310941095109569549
:10139000479537952795EC85FD853083EE85FF854C
:1013A0002083188EEC89FD89B082EA89FB898081CF
:1013B00080618083EA89FB89808188608083EA89F3
:1013C000FB89808180688083EA89FB8980818F7DA9
:1013D0008083DF91CF91FF90EF90DF90CF90BF900F
:1013E00008951F920F920FB60F9211242F938F938F
:1013F0009F93EF93FF93E091A101F091A20180816F
:10140000E091A701F091A80182FD12C09081809126
:10141000AA018F5F8F732091AB01821751F0E09189
:10142000AA01F0E0EF56FE4F958F8093AA0101C00C
:101430008081FF91EF919F918F912F910F900FBE1F
:101440000F901F9018951F920F920FB60F921124B4
:101450002F933F934F935F936F937F938F939F93BC
:10146000AF93BF93EF93FF9381E991E00E94ED0862
:10147000FF91EF91BF91AF919F918F917F916F916C
:101480005F914F913F912F910F900FBE0F901F9042
:10149000189581E991E00E94B20821E0892B09F4B6
:1014A00020E0822F0895109294011092930188EE0B
:1014B00093E0A0E0B0E08093950190939601A09313
:1014C0009701B093980183E291E090939201809309
:1014D000910185EC90E090939E0180939D0184ECB6
:1014E00090E09093A00180939F0180EC90E0909316
:1014F000A2018093A10181EC90E09093A4018093DC
:10150000A30182EC90E09093A6018093A50186EC64
:1015100090E09093A8018093A7011092AA011092E5
:10152000AB011092AC011092AD0108950895A1E2B3
:101530001A2EAA1BBB1BFD010DC0AA1FBB1FEE1F4D
:10154000FF1FA217B307E407F50720F0A21BB30B98
:10155000E40BF50B661F771F881F991F1A9469F714
:1015600060957095809590959B01AC01BD01CF0170
:101570000895EE0FFF1F0590F491E02D0994F89463
:02158000FFCF9B
:1015820073616D706C65456E63727970744B6579C9
:10159200004F4B200028002900000000001C03001F
:1015A20000000030098207B208CB08BD080E09000E
:00000001FF
