:100000000C9463000C9483060C94B0060C948B0043
:100010000C948B000C948B000C948B000C948B0034
:100020000C948B000C948B000C948B000C948B0024
:100030000C948B000C948B000C948B000C948B0014
:100040000C94DD060C948B000C942E0A0C94600A20
:100050000C948B000C948B000C948B000C948B00F4
:100060000C948B000C948B0000000008000201002F
:100070000003040700000000000000000102040863
:100080001020408001020408102001020408102002
:10009000040404040404040402020202020203032E
:1000A00003030303000000002300260029000000D2
:1000B0000000250028002B0000000000240027007D
:1000C0002A004601900A11241FBECFEFD8E0DEBF00
:1000D000CDBF11E0A0E0B1E0ECEFF5E102C005908A
:1000E0000D92A033B107D9F722E0A0E3B1E001C03F
:1000F0001D92A633B207E1F710E0C6ECD0E004C0D1
:100100002297FE010E94F80AC23CD107C9F70E945B
:10011000DA080C94FC0A0C94000026E040E056E952
:1001200060E070E089E991E00E94CC096AE070E04B
:1001300080E090E00E94560722E345E06BE288E30E
:1001400091E00E94890460E071E088E391E00E9400
:10015000500461E088E391E00C94FC010F931F933D
:1001600088E391E00E94E403882309F48CC061E1F4
:1001700071E089E991E00E94F70760914B014AE044
:1001800050E089E991E00E94CC0863E171E089E9DF
:1001900091E00E94F70710E080914C011817A0F43D
:1001A000E12FF0E0E25BFE4F608170E04AE050E05A
:1001B00089E991E00E94D30863E171E089E991E067
:1001C0000E94F7071F5FE8CF65E171E089E991E0E0
:1001D0000E94F70760E088E391E00E94DF014AE0B7
:1001E00050E0BC0189E991E00E94B70867E171E045
:1001F00089E991E00E94F70763E171E089E991E004
:100200000E94F7078091300190913101A091320155
:10021000B09133018093340190933501A09336015E
:10022000B09337010E94270760933001709331012A
:100230008093320190933301009134011091350184
:100240002091360130913701AB01BC01401B510BAD
:10025000620B730B2AE030E089E991E00E94BF084D
:1002600089E991E00E94000888E391E00E94710111
:10027000882349F040E064E171E088E391E01F9158
:100280000F910C94FC031F910F9108958DE191E063
:1002900090933901809338018AE080933A0182E09B
:1002A00080933B0110923C0181E080934D011092BC
:1002B0003E018FE180933F011092400108958091AB
:1002C000430190914401DC01ED91FC910190F0819A
:1002D000E02D09948EBD00000DB407FEFDCF8EB554
:1002E000089580914801882329F090914A0181E086
:1002F0009F3F09F480E00895FC01F8948CB5818754
:100300008DB582878CB5837F8CBD8CB58F7D8CBD80
:100310008CB58C7F8CBD8DB58E7F8DBD60E082816C
:100320000C940406CF93DF93EC0161E08A810E9474
:10033000040689858CBD8A858DBD7894DF91CF9127
:100340000895EF92FF921F93CF93DF931F92CDB743
:10035000DEB77C0169830E947C016981862F8F77DB
:100360000E946A0180E00E946A01182FC7010E9462
:100370009201812F0F90DF91CF911F91FF90EF900D
:1003800008950F931F93CF93DF9300D0CDB7DEB7BF
:100390008C014A8369830E947C016981862F806871
:1003A0000E946A014A81842F0E946A01C8010F904D
:1003B0000F90DF91CF911F910F910C949201CF93E9
:1003C000DF93EC0161110DC064E2CE010E94A10136
:1003D00090E091958195910995958795DF91CF91C1
:1003E000089541E063E20E94C10163E2CE010E94F0
:1003F000A10181FFFACFE8CFFC0166830895CF9376
:10040000DF93EC016887662311F04FE001C04AE1F9
:1004100063E1CE010E94C1018885882341F061E13A
:10042000CE010E94A101482F4F71406602C04F814A
:10043000406861E1CE01DF91CF910C94C1011F931F
:10044000CF93DF93EC01162F662311F04DE501C029
:1004500045E56AE5CE010E94C101112311F04CE788
:1004600001C040E76CE5CE01DF91CF911F910C9464
:10047000C1011F93CF93DF93EC01162F80914D01A3
:10048000681709F456C06230B1F168F46623D9F1F7
:10049000613009F04EC061E0CE010E94A101482FF9
:1004A000437E446036C0633099F0643009F041C047
:1004B00061E0CE010E94A101482F437E4C6061E0C3
:1004C000CE010E94C1018885882339F161E00FC007
:1004D00061E0CE010E94A101482F437E406161E0AE
:1004E000CE010E94C10188858823B9F060E0CE0169
:1004F0000E941F0212C061E0CE010E94A101482F9C
:10050000437E486006C061E0CE010E94A101482FF1
:10051000437E61E0CE010E94C10180914D018111B5
:1005200006C067E2CE010E94A10187FFF6CF1093BB
:100530004D01DF91CF911F910895CF93DF93EC018F
:1005400080914D01833089F48091490181110DC062
:1005500060E0CE010E94DF01863A9F4F34F461E0F3
:10056000CE010E94390281E001C080E0DF91CF918D
:100570000895CF92DF92EF92FF920F931F93CF9344
:10058000DF93EC01F62ED42EC52E122F61E00E94CF
:10059000390267E2CE010E94A10187FFFACF40E055
:1005A00065E2CE010E94C1011E3308F01DE3E11097
:1005B00004C0002319F000E401C000E8CE010E944D
:1005C0007C0180E80E946A0183E0810F0E946A0139
:1005D0008F2D0E946A018D810E946A01802F0E94E6
:1005E0006A010D2DED2CFC2C8E2D801B811730F413
:1005F000F70181917F010E946A01F6CFCE010E942E
:10060000920164E0CE010E9439020E9427076B012B
:100610007C018B810E943A06892B61F061E0CE015A
:10062000DF91CF911F910F91FF90EF90DF90CF90CE
:100630000C9439020E9427076C197D098E099F09C5
:10064000683E73408105910548F7E3CFCF93DF9370
:10065000EC0110924C0110924B0110924A01109241
:1006600049011092480110924701109246011092E0
:10067000450168E20E94A10182FF0AC06DE3CE013C
:100680000E94A101482F44606DE3CE010E94C10188
:1006900040E465E2CE010E94C10163E0CE01DF913A
:1006A000CF910C943902FF920F931F93CF93DF9356
:1006B000EC0180914D018330C1F468E2CE010E94CB
:1006C000A10182FD20C011C080914C018D3330F416
:1006D000E0914C01F0E0E25BFE4F1082CE010E94FF
:1006E000920163E0CE010E94390260E0CE010E94D7
:1006F000DF019093460180934501DF91CF911F91D7
:100700000F91FF90089561E0CE010E943902CE0161
:100710000E947C0180E00E946A0180E00E946A01E0
:1007200080934901809149018334D0F4809149013B
:100730008093490180E00E946A0180934A018E8182
:10074000811109C090914A018D81981721F0809103
:100750004A018F3F39F480914901833018F00FC06E
:1007600082E4E6CF10924901CE010E949201CE01AF
:10077000DF91CF911F910F91FF900C9426038091F0
:100780004901835080934C0180E00E946A0180936C
:100790004B0180E00E946A01982F90789093470166
:1007A000807480934801F12C80914C01F81608F078
:1007B0008BCF0F2D10E080E00E946A01F801E25B10
:1007C000FE4F8083F394F0CFF89420914D012330B5
:1007D00021F42091490121110AC020914D012330BB
:1007E00011F4789402C00E94260380E0089561E02D
:1007F0000E94390281E008954F925F926F927F923A
:100800009F92AF92BF92CF92DF92EF92FF920F939F
:10081000CF93DF93EC015B01942EF0904B01C090DD
:100820004501D09046016DE30E94A101482F44602C
:100830006DE3CE010E94C1010E9427072B013C01FC
:10084000CE010E949D028823E1F0EE24E39400E0B3
:10085000292DA5016F2DCE010E94B902D09246012B
:10086000C0924501DF91CF910F91FF90EF90DF9003
:10087000CF90BF90AF909F907F906F905F904F9080
:1008800008950E9427076419750986099709683E2B
:10089000734081059105C8F6CE010E94E403D0CFD4
:1008A000DF92EF92FF920F931F93CF93DF93EC01B0
:1008B0008B0161E00E94390201151105A1F0CE0102
:1008C0000E947C018EEB0E946A017801D12CF70115
:1008D00081917F010E946A01D394F0E1DF12F7CF8A
:1008E000CE010E9492016DE3CE010E94A1018E7F94
:1008F00091E0012B09F490E0482F492B6DE3CE01E4
:10090000DF91CF911F910F91FF90EF90DF900C94AA
:10091000C101CF92DF92EF92FF920F931F93CF937B
:10092000DF93CDB7DEB7AE970FB6F894DEBF0FBE3C
:10093000CDBF8C01C42E8EE2AE014F5F5F4F7A01B6
:10094000FA01482F11924A95E9F791E0998344E022
:100950004A8392E09B8333E03D8396E09E834F83FE
:1009600043E8488745E049873A879B8793E39C871C
:1009700037E03D8798E09F8799E0998B99E19B8BC1
:1009800092E49C8B45E24D8B40E44E8B46E24F8BCC
:10099000388F38E2398F30E13A8F39E23B8F3CEDC6
:1009A0003C8F8D8F88E88E8F8FE28F8F8DE288A3AA
:1009B00080E389A337E33BA330E93CA338E33DA3BD
:1009C0009EA39CE39FA39FE898A79DE399A792E12C
:1009D0009AA79FE69BA78CA78FEF8DA76F3131F069
:1009E0006B3231F0663531F489ED05C08EE403C019
:1009F0008CE601C084EE8E876F3141F06B3221F0BE
:100A0000663521F480E003C080E401C080EC888B6F
:100A10002AA361E0F80182810E94040661E0F801E6
:100A200082810E94CB050E946C054AEA6FE2C801F0
:100A30000E94C1016FE2C8010E94A1018A3AA9F790
:100A400045E56FE2C8010E94C1016FE2C8010E9442
:100A5000A1018535A9F7D12CF701ED0DF11DED0DA3
:100A6000F11D60816F3F31F04181C8010E94C101D9
:100A7000D394F2CF60E070E0C8010E945004F80106
:100A80006085C8010E94FF0161E0C8010E9439022F
:100A900067E2C8010E94A10187FFFACF43E050E05E
:100AA0006FE571E0F80184810E94630610934401B0
:100AB00000934301F801C58281E0AE960FB6F89429
:100AC000DEBF0FBECDBFDF91CF911F910F91FF9081
:100AD000EF90DF90CF900895CF93CFB7F8948091A7
:100AE0008B01811127C0EAE9F0E08491E6E8F0E0AB
:100AF0009491E82FF0E0EE0FFF1FE854FF4FA5910F
:100B0000B4918C91892321F461E08AE00E9404066B
:100B100061E08AE00E94CB058CB580618CBD8CB50C
:100B200080648CBD61E08DE00E94CB0561E08BE0CC
:100B30000E94CB0580918B018F5F80938B01CFBF8B
:100B4000CF910895833081F028F4813099F082307C
:100B5000A1F008958730A9F08830B9F08430D1F43D
:100B6000809180008F7D03C0809180008F7780937B
:100B70008000089584B58F7702C084B58F7D84BDD1
:100B800008958091B0008F7703C08091B0008F7D71
:100B90008093B0000895CF93DF9390E0FC01E45878
:100BA000FF4F2491FC01E057FF4F8491882349F1C6
:100BB00090E0880F991FFC01E854FF4FA591B49174
:100BC00082559F4FFC01C591D4919FB7611108C018
:100BD000F8948C91209582238C93888182230AC07B
:100BE000623051F4F8948C91322F309583238C939A
:100BF0008881822B888304C0F8948C91822B8C93FB
:100C00009FBFDF91CF9108950F931F93CF93DF93F1
:100C10001F92CDB7DEB7282F30E0F901E859FF4F1A
:100C20008491F901E458FF4F1491F901E057FF4F07
:100C300004910023C9F0882321F069830E94A20552
:100C40006981E02FF0E0EE0FFF1FE255FF4FA59105
:100C5000B4919FB7F8948C91611103C010958123D2
:100C600001C0812B8C939FBF0F90DF91CF911F917B
:100C70000F910895CF93DF93282F30E0F901E859C1
:100C8000FF4F8491F901E458FF4FD491F901E057E7
:100C9000FF4FC491CC2391F081110E94A205EC2F4B
:100CA000F0E0EE0FFF1FEC55FF4FA591B4912C9192
:100CB0002D2381E090E021F480E002C080E090E00C
:100CC000DF91CF9108958230E8F4E82FF0E0EE0F45
:100CD000FF1FE457FE4F71836083813041F08091A4
:100CE00069008C7F842B80936900E89A0895809135
:100CF0006900440F551F440F551F837F842B809339
:100D00006900E99A08951F920F920FB60F9211246D
:100D10002F933F934F935F936F937F938F939F9303
:100D2000AF93BF93EF93FF9380918C0190918D01CE
:100D3000892B29F0E0918C01F0918D010995FF91AB
:100D4000EF91BF91AF919F918F917F916F915F9143
:100D50004F913F912F910F900FBE0F901F901895BC
:100D60001F920F920FB60F9211242F933F934F9320
:100D70005F936F937F938F939F93AF93BF93EF9303
:100D8000FF9380918E0190918F01892B29F0E09142
:100D90008E01F0918F010995FF91EF91BF91AF9175
:100DA0009F918F917F916F915F914F913F912F9183
:100DB0000F900FBE0F901F9018951F920F920FB6B5
:100DC0000F9211242F933F938F939F93AF93BF93D1
:100DD0008091910190919201A0919301B091940121
:100DE0003091900123E0230F2D3720F40196A11DAF
:100DF000B11D05C026E8230F0296A11DB11D209349
:100E000090018093910190939201A0939301B093EC
:100E100094018091950190919601A0919701B091D4
:100E200098010196A11DB11D8093950190939601A3
:100E3000A0939701B0939801BF91AF919F918F912B
:100E40003F912F910F900FBE0F901F9018952FB7C5
:100E5000F894609191017091920180919301909129
:100E600094012FBF08953FB7F89480919501909118
:100E70009601A0919701B091980126B5A89B05C055
:100E80002F3F19F00196A11DB11D3FBF6627782F96
:100E9000892F9A2F620F711D811D911D42E0660FEF
:100EA000771F881F991F4A95D1F70895CF92DF9237
:100EB000EF92FF92CF93DF936B017C010E94330787
:100EC000EB01C114D104E104F10489F00E94D30ABA
:100ED0000E9433076C1B7D0B683E734090F381E0EA
:100EE000C81AD108E108F108C851DC4FEACFDF91F8
:100EF000CF91FF90EF90DF90CF900895789484B5D4
:100F0000826084BD84B5816084BD85B5826085BD05
:100F100085B5816085BDEEE6F0E0808181608083EB
:100F2000E1E8F0E0108280818260808380818160CE
:100F30008083E0E8F0E0808181608083E1EBF0E095
:100F4000808184608083E0EBF0E080818160808339
:100F5000EAE7F0E080818460808380818260808322
:100F60008081816080838081806880831092C1004D
:100F70000895CF92DF92EF92FF920F931F93CF933A
:100F8000DF936C017A01EB01E60EF71E00E010E042
:100F9000CE15DF0561F06991D601ED91FC910190CC
:100FA000F081E02DC6010995080F191FF1CFC80186
:100FB000DF91CF911F910F91FF90EF90DF90CF9035
:100FC00008956115710581F0DB010D900020E9F7AE
:100FD000AD0141505109461B570BDC01ED91FC91CD
:100FE0000280F381E02D099480E090E008950C9454
:100FF000E107DC01ED91FC910190F081E02D099475
:101000000F931F93CF93DF93EC016DE00E94F907DC
:101010008C016AE0CE010E94F907800F911FDF91D9
:10102000CF911F910F9108958F929F92AF92BF928F
:10103000CF92DF92EF92FF920F931F93CF93DF93A4
:10104000CDB7DEB7A1970FB6F894DEBF0FBECDBF08
:101050007C01C42EE52FCB01D22E19A221E02D1543
:1010600010F02AE0D22E8E010F5D1F4F8D2C912C97
:10107000A12CB12C6C2D7E2FA50194010E94D40AC5
:101080008C2DD29E80191124015011098A3014F43C
:10109000805D01C0895CF80180832115310541051F
:1010A000510521F0C22EE32FCA01E4CFB801C701D8
:1010B0000E94E107A1960FB6F894DEBF0FBECDBF28
:1010C000DF91CF911F910F91FF90EF90DF90CF9024
:1010D000BF90AF909F908F900895CF92DF92EF9244
:1010E000FF920F931F93CF93DF93EC016A017B0173
:1010F0002115310579F4E881F9810190F081E02D25
:10110000642FDF91CF911F910F91FF90EF90DF90AF
:10111000CF9009942A303105E9F477FF1AC06DE2C7
:101120000E94F9078C0144275527BA014C195D0923
:101130006E097F092AE0CE010E941408800F911FDA
:10114000DF91CF911F910F91FF90EF90DF90CF90A3
:1011500008952AE0B701A601CE01DF91CF911F913A
:101160000F91FF90EF90DF90CF900C9414089A01AC
:10117000AB01662757FD6095762F0C946D082115FD
:10118000310541F4DC01ED91FC910190F081E02DFD
:10119000642F09940C9414089A01462F50E060E0E3
:1011A00070E00C94BF089A01AB0160E070E00C9411
:1011B000BF0808950E947E070E94D9080E948D00F2
:1011C000C6E1D9E00E94AE002097E1F30E94160923
:1011D000F9CFFC01818D228D90E0805C9F4F821BB6
:1011E00091098F7399270895FC01918D828D98172D
:1011F00031F0828DE80FF11D858D90E008958FEF1D
:101200009FEF0895FC01918D828D981761F0828D7A
:10121000DF01A80FB11D5D968C91928D9F5F9F732A
:10122000928F90E008958FEF9FEF089586E89AE0FF
:10123000892B49F080E090E0892B29F00E94860AF2
:1012400081110C9400000895FC01848DDF01A80F2A
:10125000B11DA35ABF4F2C91848D90E001968F73DE
:101260009927848FA689B7892C93A089B1898C91FD
:1012700080648C93938D848D981306C00288F389C3
:10128000E02D80818F7D80830895CF93DF93EC01E3
:10129000888D8823C9F0EA89FB89808185FD05C096
:1012A000A889B9898C9186FD0FC00FB607FCF5CFD0
:1012B000808185FFF2CFA889B9898C9185FFEDCF18
:1012C000CE010E942409E7CFDF91CF910895CF92FC
:1012D000DF92FF920F931F93CF93DF931F92CDB7AF
:1012E000DEB76C01DC015B969C915B975C968C9100
:1012F0005C97981307C05096ED91FC9151978081AF
:1013000085FD32C0F601038D10E00F5F1F4F0F7394
:101310001127F02EF601848DF81211C00FB607FCCC
:10132000F9CFD6015096ED91FC915197808185FFC0
:10133000F1CFC60169830E9424096981EBCF838DB7
:10134000E80FF11DE35AFF4F6083D6015B960C93C3
:101350005B975296ED91FC915397808180628083D8
:1013600081E058968C930DC0D6015696ED91FC9174
:10137000579760835096ED91FC91519780818064DE
:10138000808381E090E00F90DF91CF911F910F91CA
:10139000FF90DF90CF900895BF92CF92DF92EF92AF
:1013A000FF92CF93DF93EC016A017B01B22EE889B3
:1013B000F98982E08083411581EE58076105710546
:1013C000A1F060E079E08DE390E0A70196010E9432
:1013D000D40A21503109410951095695479537954D
:1013E0002795211580E1380798F0E889F98910825E
:1013F00060E874E88EE190E0A70196010E94D40AAB
:10140000215031094109510956954795379527953E
:10141000EC85FD853083EE85FF852083188EEC8971
:10142000FD89B082EA89FB89808180618083EA89B5
:10143000FB89808188608083EA89FB89808180685C
:101440008083EA89FB8980818F7D8083DF91CF91C2
:10145000FF90EF90DF90CF90BF9008951F920F9272
:101460000FB60F9211242F938F939F93EF93FF93B7
:10147000E091A901F091AA018081E091AF01F09182
:10148000B00182FD12C090818091B2018F5F8F7395
:101490002091B301821751F0E091B201F0E0E756DC
:1014A000FE4F958F8093B20101C08081FF91EF9133
:1014B0009F918F912F910F900FBE0F901F901895B5
:1014C0001F920F920FB60F9211242F933F934F93B9
:1014D0005F936F937F938F939F93AF93BF93EF939C
:1014E000FF9389E991E00E942409FF91EF91BF9158
:1014F000AF919F918F917F916F915F914F913F91AC
:101500002F910F900FBE0F901F90189589E991E0D1
:101510000E94E90821E0892B09F420E0822F089538
:1015200010929C0110929B0188EE93E0A0E0B0E045
:1015300080939D0190939E01A0939F01B093A00181
:1015400083E291E090939A018093990185EC90E079
:101550009093A6018093A50184EC90E09093A8015C
:101560008093A70180EC90E09093AA018093A90159
:1015700081EC90E09093AC018093AB0182EC90E021
:101580009093AE018093AD0186EC90E09093B00112
:101590008093AF011092B2011092B3011092B40186
:1015A0001092B50108950895A1E21A2EAA1BBB1B43
:1015B000FD010DC0AA1FBB1FEE1FFF1FA217B3071F
:1015C000E407F50720F0A21BB30BE40BF50B661F35
:1015D000771F881F991F1A9469F7609570958095F9
:1015E00090959B01AC01BD01CF010895EE0FFF1F47
:0C15F0000590F491E02D0994F894FFCFD1
:1015FC0073616D706C65456E63727970744B65794F
:10160C00004F4B200028002900000000005303006D
:10161C000000006709B907E9080209F40845090048
:00000001FF
